:020000040800F2
:1000000000000220C52500086125000863250008BE
:100010006525000867250008692500080000000024
:100020000000000000000000000000006B25000838
:100030006D250008000000006F25000871250008EC
:1000400015260008152600081526000815260008A4
:100050001526000815260008152600081526000894
:100060001526000815260008152600081526000884
:100070001526000815260008152600081526000874
:100080001526000815260008152600081526000864
:100090001526000815260008152600081526000854
:1000A0001526000815260008152600081526000844
:1000B0001526000815260008152600081526000834
:1000C0001526000815260008152600081526000824
:1000D0001526000815260008152600081526000814
:1000E0001526000815260008152600081526000804
:1000F00015260008152600081526000815260008F4
:1001000015260008152600081526000815260008E3
:1001100015260008152600081526000815260008D3
:1001200015260008152600081526000815260008C3
:100130001526000800000000000000001526000839
:1001400015260008152600081526000815260008A3
:100150001526000815260008152600081526000893
:100160001526000815260008152600081526000883
:1001700015260008152600081526000800000000B6
:10018000000000001526000800000000000000002C
:1001900015260008000000000000000015260008D9
:1001A000000000000000000000000000152600080C
:1001B0001526000815260008152600081526000833
:0401C00015260008F8
:1001C40010B5054C237833B9044B13B10448AFF38D
:1001D40000800123237010BD0C00002000000000EB
:1001E4007026000808B5034B1BB103490348AFF35D
:1001F400008008BD000000001000002070260008E8
:1002040053B94AB9002908BF00281CBF4FF0FF3179
:100214004FF0FF3000F072B9ADF1080C6DE904CE77
:1002240000F006F8DDF804E0DDE9022304B07047CD
:100234002DE9F047089E04468846002B4BD18A429C
:10024400154667D9B2FA82F24AB1C2F1200701FA1F
:1002540002F320FA07F7954047EA030894404FEA6F
:10026400154E230CB8FBFEF71FFA85FC0EFB17880E
:1002740043EA084307FB0CF1994209D9EB1807F14B
:10028400FF3080F01B81994240F21881023F2B44D9
:100294005B1AA4B2B3FBFEF00EFB103344EA034432
:1002A40000FB0CFCA44509D92C1900F1FF3380F0A4
:1002B4000781A44540F2048102382C4440EA0740F7
:1002C400A4EB0C0400271EB1D4400023C6E900436C
:1002D4003946BDE8F0878B4209D9002E00F0EB8047
:1002E4000027C6E9000138463946BDE8F087B3FA6D
:1002F40083F7002F47D18B4202D3824200F2FA8067
:10030400841A61EB030301209846002EE0D0C6E96D
:100314000048DDE702B9FFDEB2FA82F2002A40F0BB
:100324008F80491B4FEA154E1FFA85F80127B1FB50
:10033400FEFC230C0EFB1C1143EA014308FB0CF1E9
:10034400994207D9EB180CF1FF3002D2994200F21E
:10035400CD808446591AA3B2B1FBFEF00EFB1014F3
:1003640043EA044408FB00F8A04507D92C1900F11E
:10037400FF3302D2A04500F2B6801846A4EB08046D
:1003840040EA0C409FE7C7F1200CBB4022FA0CFE68
:100394004EEA030E01FA07F420FA0CF521FA0CF3E5
:1003A4004FEA1E482543B3FBF8F92C0C08FB19331C
:1003B4001FFA8EFA44EA034309FB0AF49C4202FA48
:1003C40007F200FA07F10BD91EEB030309F1FF3022
:1003D40080F087809C4240F28480A9F10209734432
:1003E4001B1BADB2B3FBF8F008FB103345EA034422
:1003F40000FB0AFAA24508D91EEB040400F1FF33FE
:100404006BD2A24569D90238744440EA0940A0FB82
:100414000289A4EB0A044C45C2464B4654D351D03E
:10042400002E69D0B1EB0A0564EB030404FA0CFC5A
:10043400FD40FC404CEA0505C6E90054002747E7A7
:10044400C2F1200320FA03F7954001FA02F021FAE1
:1004540003F34FEA154E3843010CB3FBFEF71FFAC2
:1004640085F80EFB173341EA034107FB08F38B427F
:1004740004FA02F407D9691807F1FF3C2FD28B4222
:100484002DD9023F2944CB1A81B2B3FBFEF00EFBF7
:10049400103341EA034100FB08F38B4207D9691882
:1004A40000F1FF3C17D28B4215D902382944C91AEE
:1004B40040EA07473BE73746304609E70746E7E6A1
:1004C4001846FBE64145ABD2B8EB020A69EB0E02D3
:1004D40001381346A4E76046E9E7184695E76746FE
:1004E400D1E781467CE702382C4447E7ACF1020CA3
:1004F4002B442FE7384608E73746E9E6704700BF44
:1005040010B504460E4B18784FF47A73B3FBF0F32E
:100514000C4A1068B0FBF3F000F02EF968B90F2C08
:1005240001D901200AE0002221464FF0FF3000F0FB
:10053400EFF8034B5C60002000E0012010BD00BF19
:10054400000000200800002008B50B4B1A6842F494
:1005540000721A601A6842F480621A601A6842F4DF
:1005640080721A60032000F0C1F80020FFF7C8FF72
:1005740001F088FD002008BD003C0240034A1168D8
:10058400034B1B780B441360704700BF50000020DE
:1005940000000020014B1868704700BF5000002085
:1005A400002800F0A18038B5044690F82030D3B17B
:1005B4002268136823F002031360FFF7EBFF05467C
:1005C40023685A6812F0020F10D0FFF7E3FF401BB4
:1005D4000A28F5D9636A43F400336362052384F877
:1005E4002030012038BD01F06DFDE1E71A6842F0CA
:1005F40001021A60FFF7CEFF054623685A6812F01D
:10060400010F0DD1FFF7C6FF401B0A28F5D9636A15
:1006140043F400336362052384F820300120E1E7CA
:10062400227E012A3DD01A6822F080021A60637E7D
:10063400012B3BD02268136823F040031360A37E90
:10064400012B39D02268136823F020031360E37E62
:10065400012B37D02268136843F010031360237F03
:10066400012B35D02268136823F008031360637FDD
:10067400012B33D02268136823F004031360A368AA
:10068400E268134322691343626913436268013ABF
:1006940021681343CB6100206062012384F8203079
:1006A400A0E71A6842F080021A60C0E72268136863
:1006B40043F040031360C2E72268136843F0200349
:1006C4001360C4E72268136823F010031360C6E7BD
:1006D4002268136843F008031360C8E722681368AC
:1006E40043F004031360CAE701207047074AD36844
:1006F40023F4E0631B041B0C000200F4E0601843C5
:1007040040F0BF6040F40030D060704700ED00E07E
:1007140030B4174BDB68C3F30223C3F10704042C82
:1007240028BF04241D1D062D18D9033B4FF0FF35A7
:1007340005FA04F421EA0401994005FA03F322EAD4
:100744000303194300280BDB0901C9B200F160401F
:1007540000F5614080F8001330BC70470023E5E7E2
:1007640000F00F000901C9B2024B1954F4E700BFAD
:1007740000ED00E014ED00E00138B0F1807F0AD212
:10078400064B5860064AF02182F823100020986036
:1007940007221A6070470120704700BF10E000E094
:1007A40000ED00E000230F2B00F2D180F0B482B002
:1007B40039E0062200E00022B2403A430234644E9B
:1007C40046F82420634A1468EA4302EA04064F68A0
:1007D40017F4803F01D045EA04065E4C2660646845
:1007E40002EA04064F6817F4003F01D045EA040604
:1007F400584C6660A46802EA04064F6817F4801F28
:1008040001D045EA0406534CA660E46822404E68D1
:1008140016F4001F01D045EA04024E4CE260013395
:100824000F2B00F2918001229A400C6804EA020521
:10083400AA42F4D14C68022C01D0122C10D1DE084B
:10084400083650F826C003F00704A7000F24BC4064
:100854002CEA040C0C69BC4044EA0C0440F8264021
:1008640004685F000326BE40F64306EA040C4C68A5
:1008740004F00304BC4044EA0C0404604C6804F132
:10088400FF3CBCF1010F03D9112C01D0122C10D163
:10089400846806EA040CCC68BC4044EA0C04846016
:1008A400446824EA02024C68C4F300149C401443D4
:1008B4004460C26816408A68BA403243C2604A68DB
:1008C40012F0805FABD000220192234A546C44F4AE
:1008D40080445464526C02F480420192019A9C0850
:1008E400A61C1B4A52F8267003F0030296000F223E
:1008F400B24027EA0207194A90423FF45CAF02F57E
:100904008062904216D002F58062904214D002F5C3
:100914008062904212D002F58062904210D002F5BB
:10092400806290420ED002F5806290423FF441AF63
:10093400072241E701223FE702223DE703223BE78A
:10094400042239E7052237E702B0F0BC704770474C
:1009540000380140003C01400038024000000240E1
:1009640012B909048161704781617047002800F061
:100974009D8070B504464F4B1B6803F00F038B42F8
:1009840009D2CBB24B4A1370136803F00F038B42A6
:1009940001D0012070BD236813F0020F17D013F0AB
:1009A400040F04D0444A936843F4E05393602368EB
:1009B40013F0080F04D0404A936843F460439360F3
:1009C4003D4A936823F0F003A068034393600D4607
:1009D400236813F0010F32D06368012B21D09A1ED3
:1009E400012A25D9344A126812F0020F60D0324924
:1009F4008A6822F0030213438B60FFF7CBFD06469F
:100A04002D4B9B6803F00C036268B3EB820F16D086
:100A1400FFF7C0FD801B41F288339842F0D90320D0
:100A2400B8E7254A126812F4003FE0D10120B1E78B
:100A3400214A126812F0007FD9D10120AAE71D4B88
:100A44001B6803F00F03AB4209D9EAB2194B1A70C1
:100A54001B6803F00F03AB4201D001209AE723681F
:100A640013F0040F06D0144A936823F4E053E168AA
:100A74000B439360236813F0080F07D00E4A936862
:100A840023F46043216943EAC103936000F040F812
:100A9400094B9B68C3F30313084AD35CD840084B43
:100AA40018600020FFF72CFD002073E70120704739
:100AB40001206FE7003C024000380240882600080D
:100AC40008000020014B1868704700BF0800002090
:100AD40008B5FFF7F7FF044B9B68C3F38223034A6F
:100AE400D35CD84008BD00BF0038024098260008F7
:100AF40008B5FFF7E7FF044B9B68C3F34233034A8F
:100B0400D35CD84008BD00BF0038024098260008D6
:100B14002DE9F04B5C4B9B6803F00C03082B07D0CA
:100B24000C2B5BD0042B00F0AD805848BDE8F08B53
:100B3400554B5A6802F03F025B6813F4800F2AD0C9
:100B4400514B5B68C3F388131E4600275C010025E4
:100B5400E41A65EB0705A90141EA9461A001001BB1
:100B640061EB0501CB0043EA5073C400A01943EBC9
:100B740007014B0243EAD05344022046194600239E
:100B8400FFF73EFB404B5B68C3F3014301335B005B
:100B9400B0FBF3F0CAE73C4B5B68C3F388131E4613
:100BA40000275C010025E41A65EB0705A90141EA69
:100BB4009461A001001B61EB0501CB0043EA507373
:100BC400C400A01943EB07018B0243EA905384024B
:100BD400204619460023FFF713FBD3E72A4B5A6834
:100BE40002F03F025B6813F4800F28D0264B5B6849
:100BF400C3F388131E4600275C010025E41A65EB45
:100C04000705A90141EA9461A001001B61EB0501FC
:100C1400CB0043EA5073C400A01943EB07014B0215
:100C240043EAD0534402204619460023FFF7E8FA6A
:100C3400154B5B68C3F30273B0FBF3F076E7124B1A
:100C44005B68C3F388131E4600275C010025E41A81
:100C540065EB0705A90141EA9461A001001B61EB62
:100C64000501CB0043EA5073C400A01943EB07010C
:100C74008B0243EA90538402204619460023FFF76F
:100C8400BFFAD5E7024851E7003802400024F400D7
:100C940000127A0070B582B00446036813F0010FA5
:100CA40041D0A64B9B6803F00C03042B32D0A34B1A
:100CB4009B6803F00C03082B27D0A04B9B6803F020
:100CC4000C030C2B59D06368B3F5803F5BD0B3F5AC
:100CD400A02F5ED0994B1A6822F480321A601A68E9
:100CE40022F480221A606368002B5CD0FFF752FC68
:100CF4000546924B1B6813F4003F14D1FFF74AFCDE
:100D0400401B6428F5D903209DE18C4B5B6813F4E8
:100D1400800FD2D0894B1B6813F4003F03D0636863
:100D2400002B00F08D81236813F0020F67D0834BF2
:100D34009B6813F00C0F4AD0804B9B6803F00C03A4
:100D4400082B3FD07D4B9B6803F00C030C2B48D041
:100D5400E368002B74D07A4B01221A60FFF71AFC67
:100D64000546764B1B6813F0020F60D1FFF712FCA7
:100D7400401B0228F5D9032065E1704B5B6813F42E
:100D8400800FA0D0C6E76D4A136843F48033136024
:100D9400A9E76A4B1A6842F480221A601A6842F47E
:100DA40080321A609FE7FFF7F5FB0546634B1B682B
:100DB40013F4003FB7D0FFF7EDFB401B6428F5D9CF
:100DC400032040E15D4B5B6813F4800FBAD15B4BA9
:100DD4001B6813F0020F0AD0E368012B07D001202F
:100DE40031E1564B5B6813F4800FB1D1EFE7534AFE
:100DF400136823F0F803216943EAC10313602368ED
:100E040013F0080F40D0636963B34E4B01221A609C
:100E1400FFF7C0FB0546494B5B6F13F0020F33D15C
:100E2400FFF7B8FB401B0228F5D903200BE1434A26
:100E3400136823F0F803216943EAC1031360DEE772
:100E44003F4B00221A60FFF7A5FB05463B4B1B688E
:100E540013F0020FD3D0FFF79DFB401B0228F5D9F6
:100E64000320F0E0374B00221A60FFF793FB05469E
:100E7400324B5B6F13F0020F06D0FFF78BFB401B66
:100E84000228F5D90320DEE0236813F0040F79D09B
:100E94002A4B1B6C13F0805F33D100230193274B43
:100EA4001A6C42F080521A641B6C03F08053019355
:100EB400019B0125244B1B6813F4807F23D0A36876
:100EC400012B34D0052B41D01C4B1A6F22F00102A8
:100ED4001A671A6F22F004021A67A368002B3FD026
:100EE400FFF758FB0646154B1B6F13F0020F48D152
:100EF400FFF750FB801B41F288339842F3D903205B
:100F0400A1E00025D6E7104A136843F48073136008
:100F1400FFF740FB06460C4B1B6813F4807FCED1D1
:100F2400FFF738FB801B0228F5D903208BE0034A26
:100F3400136F43F001031367CFE700BF003802408B
:100F440000004742800E474200700040404B1A6F39
:100F540042F004021A671A6F42F001021A67BCE7F2
:100F6400FFF718FB06463A4B1B6F13F0020F08D02D
:100F7400FFF710FB801B41F288339842F3D903201A
:100F840061E0E5B9A369002B5CD0314A926802F0B4
:100F94000C02082A59D0022B17D02E4B00221A60BB
:100FA400FFF7F8FA04462A4B1B6813F0007F45D07C
:100FB400FFF7F0FA001B0228F5D9032043E0244A86
:100FC400136C23F080531364DCE7224B00221A6075
:100FD400FFF7E0FA05461E4B1B6813F0007F06D0AE
:100FE400FFF7D8FA401B0228F5D903202BE0E36968
:100FF400226A1343626A43EA8213A26A5208013ADC
:1010040043EA0243E26A43EA0263226B43EA02735D
:101014000F4A53600F4B01221A60FFF7BBFA0446D4
:101024000B4B1B6813F0007F06D1FFF7B3FA001BCC
:101034000228F5D9032006E0002004E0002002E0A5
:10104400012000E0002002B070BD0120FBE700BFDA
:10105400003802406000474200283BD010B50446E7
:101064000023836290F85130002B2ED0022384F8A1
:1010740051302268136823F0400313606368A26848
:101084001343E26813432269134362691343A26959
:1010940002F400721343E2691343226A1343A16A00
:1010A40022680B431360638B03F00403616A2268B4
:1010B4000B4353602268D36923F40063D361002097
:1010C4006065012384F8513010BD80F8503001F080
:1010D40031F8CBE70120704730B4036A23F00103F1
:1010E4000362056A4268846924F073040B681C4334
:1010F40025F002058B682B43104DA84203D005F55B
:101104008065A84205D123F00803CD682B4323F062
:1011140004030A4DA84203D005F58065A84205D111
:1011240022F440724D6915438A692A4342608461FE
:101134004A684263036230BC704700BF000001404C
:1011440030B4036A23F480730362036A4268C46997
:1011540024F073040D682C4323F400738D6843EA70
:101164000523124DA84203D005F58065A84206D197
:1011740023F40063CD6843EA052323F480630B4D15
:10118400A84203D005F58065A84207D122F4405255
:101194004D6942EA05128D6942EA05124260C46152
:1011A4004A68C263036230BC704700BF000001405C
:1011B40030B4036A23F480530362036A4468C26947
:1011C40022F4E6420D6842EA052223F400538D68B6
:1011D40043EA0533094DA84203D005F58065A842CA
:1011E40004D124F480444D6944EA85144460C26106
:1011F4004A680264036230BC704700BF00000140CB
:1012040010B4036A046A24F001040462846924F0BB
:10121400F00444EA021223F00A030B4382610362DE
:101224005DF8044B704710B4036A23F010030362A3
:101234008469036A24F4704444EA023223F0A0036C
:1012440043EA0113826103625DF8044B70478368CB
:1012540023F07003194341F00701816070470000D7
:101264000368304A904212D0B0F1804F0FD0A2F5FB
:101274007C4290420BD002F58062904207D002F586
:101284008062904203D002F57842904203D123F069
:1012940070034A681343234A90422AD0B0F1804F26
:1012A40027D0A2F57C42904223D002F5806290427E
:1012B4001FD002F5806290421BD002F57842904222
:1012C40017D002F57052904213D002F5806290421A
:1012D4000FD002F5806290420BD0A2F59832904272
:1012E40007D002F58062904203D002F580629042FA
:1012F40003D123F44073CA68134323F080034A697B
:10130400134303608B68C3620B688362054B984286
:1013140003D003F58063984201D10B690363012371
:101324004361704700000140A8B110B5044690F82D
:101334003D305BB1022384F83D30211D2068FFF766
:101344008FFF012384F83D30002010BD80F83C302D
:1013540000F028FFEEE701207047A8B110B504465D
:1013640090F83D305BB1022384F83D30211D2068A4
:10137400FFF776FF012384F83D30002010BD80F88C
:101384003C3000F04BFFEEE70120704730B4036AB5
:1013940023F010030362036A4468826922F4E6427C
:1013A4000D6842EA052223F020038D6843EA051301
:1013B400114DA84203D005F58065A84206D123F05B
:1013C4008003CD6843EA051323F040030A4DA84285
:1013D40003D005F58065A84207D124F440644D6923
:1013E40044EA85048D6944EA8504446082614A685C
:1013F4008263036230BC70470000014038B590F846
:101404003C30012B66D00D460446012380F83C3065
:10141400022380F83D300C2A1AD8DFE802F00719BD
:101424001919201919193419191947000068FFF7F7
:1014340053FE2268936943F0080393612268936919
:1014440023F0040393612268936929690B43936130
:10145400012384F83D30002084F83C0038BD006846
:10146400FFF794FF2268936943F400639361226851
:10147400936923F48063936122689369296943EA39
:1014840001239361E4E70068FFF75AFE2268D369F9
:1014940043F00803D3612268D36923F00403D361C2
:1014A4002268D36929690B43D361D1E70068FFF748
:1014B4007FFE2268D36943F40063D3612268D36951
:1014C40023F48063D3612268D369296943EA012341
:1014D400D361BDE70220C1E710B4846824F47F44DB
:1014E40042EA03230B43234383605DF8044B7047B4
:1014F40090F83C30012B66D010B50446012380F8E7
:101504003C30022380F83D300268936823F47F4323
:1015140023F0770393600B68402B4AD013D9602BD8
:101524003DD01ED9702B28D0B3F5005F30D1CB68E5
:101534004A6889680068FFF7CFFF2268936843F41C
:101544008043936024E0102B06D004D9202B03D0D1
:10155400302B01D01CE0DBB919462068FFF777FE79
:1015640016E0502B14D1CA6849680068FFF748FE9A
:1015740050212068FFF76BFE0AE0CB684A6889684F
:101584000068FFF7A9FF2268936843F0770393602C
:10159400012384F83D30002084F83C0010BDCA6863
:1015A40049680068FFF73FFE60212068FFF74FFE9F
:1015B400EEE7CA6849680068FFF722FE4021206808
:1015C400FFF745FEE4E70220704710B401F01F0165
:1015D400012303FA01F4036A23EA04030362036A9E
:1015E4008A40134303625DF8044B704710B5044608
:1015F40001220068FFF7E9FF23680B4A934203D0F6
:1016040002F58062934203D15A6C42F400425A6458
:101614002268936803F00703062B03D0136843F092
:1016240001031360002010BD0000014090F83C301D
:10163400012B1CD070B4012680F83C60022380F892
:101644003D3002685568936825F070050C682C439A
:1016540023F080054B682B4354600268936080F844
:101664003D60002380F83C30184670BC704702206F
:10167400704790F83C30012B22D0012380F83C3095
:10168400CB6823F440738A68134323F480634A6865
:10169400134323F400630A68134323F480530A6951
:1016A400134323F400534A69134323F48043CA6960
:1016B400134302685364002380F83C301846704793
:1016C400022070472DE9F84304460268136923F4A5
:1016D4004053C1680B431361836802691343426931
:1016E4001343C2691A430168CB6823F4164323F0F9
:1016F4000C031343CB600268536923F4407381697C
:101704000B435361C369B3F5004F60D00368B84A13
:10171400934200F0148102F58062934200F00F813D
:10172400FFF7D6F900EB800000EB80006568AD00A0
:10173400B0FBF5F5AF4FA7FB05356D092E01FFF79B
:10174400C7F900EB800000EB80006568AD00B0FBDA
:10175400F5F9FFF7BDF900EB800000EB8000656848
:10176400AD00B0FBF5F5A7FB05356D094FF0640836
:1017740008FB15952D013235A7FB05356D0905F0DC
:10178400F0053544FFF7A4F900EB800000EB80007E
:101794006668B600B0FBF6F6FFF79AF900EB800036
:1017A40000EB800063689B00B0FBF3F0A7FB003004
:1017B400400908FB10684FEA081808F13208A7FB33
:1017C4000837C7F3431723682F449F600DE103686C
:1017D400874A93425BD002F58062934257D0FFF769
:1017E40077F900EB800000EB800065686D00B0FBCA
:1017F400F5F5804FA7FB05356D092E01FFF768F954
:1018040000EB800000EB800065686D00B0FBF5F92B
:10181400FFF75EF900EB800000EB800065686D0067
:10182400B0FBF5F5A7FB05356D094FF0640808FB1F
:101834001595ED003235A7FB05356D096D0005F4EE
:10184400F8753544FFF744F900EB800000EB8000A5
:1018540066687600B0FBF6F6FFF73AF900EB800015
:1018640000EB800063685B00B0FBF3F3A7FB03238A
:101874005B0908FB13684FEAC80808F13208A7FBA4
:101884000837C7F3421723682F449F60ADE0FFF782
:101894002FF900EB800000EB800065686D00B0FB61
:1018A400F5F5544FA7FB05356D092E01FFF720F917
:1018B40000EB800000EB800065686D00B0FBF5F97B
:1018C400FFF716F900EB800000EB800065686D00FF
:1018D400B0FBF5F5A7FB05356D094FF0640808FB6F
:1018E4001595ED003235A7FB05356D096D0005F43E
:1018F400F8753544FFF7FCF800EB800000EB80003E
:1019040066687600B0FBF6F6FFF7F2F800EB8000AD
:1019140000EB800063685B00B0FBF3F3A7FB0323D9
:101924005B0908FB13684FEAC80808F13208A7FBF3
:101934000837C7F3421723682F449F6055E0FFF729
:10194400D7F800EB800000EB80006568AD00B0FBC9
:10195400F5F5284FA7FB05356D092E01FFF7C8F8EB
:1019640000EB800000EB80006568AD00B0FBF5F98A
:10197400FFF7BEF800EB800000EB80006568AD0067
:10198400B0FBF5F5A7FB05356D094FF0640808FBBE
:1019940015952D013235A7FB05356D0905F0F005C8
:1019A4003544FFF7A5F800EB800000EB8000666883
:1019B400B600B0FBF6F6FFF79BF800EB800000EBF7
:1019C400800063689B00B0FBF3F0A7FB0030400984
:1019D40008FB10684FEA081808F13208A7FB08371B
:1019E400C7F3431723682F449F60BDE8F88300BF03
:1019F400001001401F85EB5158B310B5044690F810
:101A040039300BB3242384F839302268D36823F4A3
:101A14000053D3602046FFF755FE2268136923F470
:101A2400904313612268536923F02A0353612268A7
:101A3400D36843F40053D3600020E063202384F888
:101A4400393084F83A3010BD80F8383000F04EFD5B
:101A5400D8E70120704700002DE9F0418AB0002446
:101A6400059406940794089409940194334B1A6BD3
:101A740042F004021A631A6B02F004020192019A02
:101A840002941A6B42F080021A631A6B02F080020D
:101A94000292029A03941A6B42F001021A631A6BBF
:101AA40002F001020392039A04941A6B42F00202B8
:101AB4001A631B6B03F002030493049B204E22461B
:101AC40042F270113046FEF74BFFDFF87C8022466D
:101AD4004FF286014046FEF743FF1A4F22464FF469
:101AE40018413846FEF73CFF42F270130593012576
:101AF40006950794089405A93046FEF753FE0F2374
:101B040005930694079405A93046FEF74BFE4FF261
:101B14008603059306950794089405A94046FEF7A5
:101B240041FE4FF41843059306950794089405A9BC
:101B34003846FEF737FE0AB0BDE8F08100380240AF
:101B440000080240000002400004024008B50948B1
:101B5400094B03601023436000238360C360036167
:101B64004361037643768376C37603774377FEF740
:101B740017FD08BDAC0200200064004008B50B4806
:101B84000B4B03604FF48273436000238360C36094
:101B9400036143614FF400728261C3610362436273
:101BA40083620A23C362FFF757FA08BD14010020B9
:101BB400003C004030B597B0002412941394149460
:101BC40015941094119409940A940B940C940D9404
:101BD4000E940F942022214601A800F03FFD244DCD
:101BE400244B2B60A7236B60AC6042F20F73EB6055
:101BF4002C616C61AC612846FFF796FB4FF480536F
:101C0400129312A92846FFF773FC2846FFF7A5FB99
:101C14001094119410A92846FFF708FD6023099336
:101C24000A940B940C940D940E940F94224609A9D3
:101C34002846FFF7E3FB042209A92846FFF7DEFB49
:101C4400082209A92846FFF7D9FB019402940394BA
:101C5400049405944FF400530693089401A928466C
:101C6400FFF707FD284600F037FB17B030BD00BF73
:101C7400AC0100200000014030B58BB00024089472
:101C8400099401940294039404940594069407948B
:101C9400144D4FF080432B60A7236B60AC6042F27D
:101CA4000F73EB602C61AC612846FFF756FB089478
:101CB400099408A92846FFF7B9FC6023019302940C
:101CC40003940594224601A92846FFF797FB0822AE
:101CD40001A92846FFF792FB284600F0FDFA0BB055
:101CE40030BD00BF6C02002070B5154C154B23604D
:101CF400A72363600026A66042F20F73E3602661A7
:101D0400A6612046FFF729FB0F4D2E606E60294621
:101D14002046FFF78BFC6023AB60EE602E61AE6162
:101D24000835324629462046FFF768FB0422294637
:101D34002046FFF763FB204600F0CEFA70BD00BFDB
:101D4400D4000020000400402800002030B58BB0EF
:101D5400002408940994019402940394049405942F
:101D640006940794114D124B2B60A7236B60AC6053
:101D740042F20F73EB602C61AC612846FFF7EDFA79
:101D84000894099408A92846FFF750FC602301939E
:101D9400029403940594224601A92846FFF72EFBDA
:101DA400284600F099FA0BB030BD00BF9400002023
:101DB4000008004030B593B00024109411940994A5
:101DC4000A940B940C940D940E940F9420222146A3
:101DD40001A800F043FC1A4D1A4B2B60A7236B603B
:101DE400AC6042F20F73EB602C616C61AC6128460D
:101DF400FFF7B3FA1094119410A92846FFF716FCC4
:101E0400602309930A940B940C940D940E940F94EC
:101E1400042209A92846FFF7F1FA019402940394D5
:101E2400049405944FF400530693089401A928469A
:101E3400FFF71FFC284600F04FFA13B030BD00BF77
:101E4400540000200004014030B589B000240194FE
:101E5400029403940494059406940794114D124B30
:101E64002B60A7236B60AC6042F20F73EB602C61B4
:101E7400AC612846FFF771FA60230193029403943E
:101E84000594224601A92846FFF7B8FA04220DEB6F
:101E940002012846FFF7B2FA284600F01DFA09B0FD
:101EA40030BD00BFEC0100200040014030B589B0D6
:101EB40000240194029403940494059406940794D2
:101EC4000F4D104B2B60A7236B60AC6042F20F7375
:101ED400EB602C61AC612846FFF726FA2846FFF731
:101EE4003CFA60230193029403940594224601A9C9
:101EF4002846FFF783FA284600F0EEF909B030BD12
:101F04006C010020001C004030B589B0002401940D
:101F14000294039404940594069407940F4D104B73
:101F24002B60A7236B60AC6042F20F73EB602C61F3
:101F3400AC612846FFF7F8F92846FFF70EFA60234C
:101F44000193029403940594224601A92846FFF7BD
:101F540055FA284600F0C0F909B030BDD40200207B
:101F64000020004008B50848084B03604FF4E133F3
:101F7400436000238360C36003610C224261836178
:101F8400C361FFF739FD08BD2C020020004C00405E
:101F940030B595B03422002107A800F05FFB00247F
:101FA4000294039404940594069400941B4B1A6CB5
:101FB40042F080521A641B6C03F080530093009B20
:101FC4000194174A136823F4404343F48043136095
:101FD400136803F440430193019B022507950123F1
:101FE4000A9310230B930D950E940F934FF4A8733B
:101FF4001093042311931295139507A8FEF74AFE34
:102004000F230293039504944FF48053059306948D
:10201400294602A8FEF7AAFC15B030BD00380240DC
:102024000070004008B5FEF78FFAFFF7B1FFFFF725
:1020340013FDFFF78BFDFFF7A1FDFFF7BBFDFFF7D6
:102044001BFEFFF751FEFFF781FEFFF7B3FEFFF71C
:10205400FBFEFFF72BFFFFF757FFFFF783FF07494F
:1020640042F21073CB60064C042208312046FFF77D
:10207400C5F904212046FFF7B9FAFEE7280000203D
:10208400D400002000B583B0002100910C4B5A6CA1
:1020940042F480425A645A6C02F480420092009ADC
:1020A40001911A6C42F080521A641B6C03F0805345
:1020B4000193019B0720FEF719FB03B05DF804FBB5
:1020C4000038024000B589B00023039304930593BC
:1020D400069307930268154B9A4202D009B05DF843
:1020E40004FB0021019103F5EA331A6C42F00072FB
:1020F4001A641A6C02F000720192019A02911A6B2E
:1021040042F002021A631B6B03F002030293029B68
:102114004FF4407303930223049303230693092388
:10212400079303A90248FEF73DFBD7E7006400408C
:102134000004024000B589B000230393049305937F
:10214400069307930268154B9A4202D009B05DF8D2
:1021540004FB0021019103F5FE331A6C42F40042A2
:102164001A641A6C02F400420192019A02911A6BE9
:1021740042F004021A631B6B03F004030293029BF4
:102184004FF4E0530393022304930323069306239B
:10219400079303A90248FEF705FBD7E7003C00407C
:1021A4000008024084B00368184A934207D0184AD2
:1021B400934211D0174A93421BD004B070470023B6
:1021C4000193154B5A6C42F001025A645B6C03F0A4
:1021D40001030193019BF0E7002302930E4B1A6C59
:1021E40042F080021A641B6C03F080030293029B8A
:1021F400E3E700230393084B1A6C42F480721A64D9
:102204001B6C03F480730393039BD6E70000014027
:10221400001C0040002000400038024086B00368E3
:10222400B3F1804F18D0274A934223D0264A9342D1
:102234002DD0264A934237D0254A934218D1002301
:102244000593244B5A6C42F480325A645B6C03F459
:1022540080330593059B0BE0002301931D4B1A6CFF
:1022640042F001021A641B6C03F001030193019B09
:1022740006B0704700230293164B1A6C42F0020218
:102284001A641B6C03F002030293029BF0E7002321
:102294000393104B1A6C42F004021A641B6C03F093
:1022A40004030393039BE3E700230493094B5A6C51
:1022B40042F002025A645B6C03F002030493049B31
:1022C400D6E700BF000400400008004000040140BD
:1022D400004001400038024070B58EB000230993DD
:1022E4000A930B930C930D930368754A934219D088
:1022F400B3F1804F2ED0734A934258D0724A93421E
:102304006BD0724A93427ED0714A934200F092801D
:10231400704A934200F0A5806F4A934200F0B8805F
:102324000EB070BD002300936C4B1A6B42F0010297
:102334001A631B6B03F001030093009B4FF4E063EB
:10234400099302230A9301230D9309A96448FEF714
:1023540029FAE5E70024019403F50E331A6B42F0E1
:1023640001021A631A6B02F001020192019A0294AB
:102374001A6B42F002021A631B6B03F0020302930E
:10238400029B2023099302260A9601250D9509A98B
:102394005348FEF707FA4FF4806309930A960B94A7
:1023A4000C940D9509A94F48FEF7FCF9B8E70023F2
:1023B40003934A4B1A6B42F002021A631B6B03F03D
:1023C40002030393039B3023099302230A930D937F
:1023D40009A94448FEF7E6F9A2E7002304933F4B1A
:1023E4001A6B42F002021A631B6B03F0020304939C
:1023F400049B4023099302230A930D9309A93948A6
:10240400FEF7D0F98CE700230593344B1A6B42F0A6
:1024140004021A631B6B03F004030593059B8023DA
:10242400099302230A9303230D9309A92E48FEF767
:10243400B9F975E700230693284B1A6B42F00102A1
:102444001A631B6B03F001030693069B0C23099389
:1024540002230A9303230D9309A92148FEF7A2F945
:102464005EE7002307931D4B1A6B42F001021A63C7
:102474001B6B03F001030793079B4023099302237B
:102484000A9309230D9309A91548FEF78BF947E729
:1024940000230893114B1A6B42F001021A631B6B61
:1024A40003F001030893089B8023099302230A93F2
:1024B40009230D9309A90A48FEF774F930E700BF10
:1024C40000000140000400400008004000040140F6
:1024D40000400140001C0040002000400038024041
:1024E40000000240000402400008024000B589B028
:1024F4000023039304930593069307930268154BF3
:102504009A4202D009B05DF804FB0021019103F561
:10251400F6331A6C42F400221A641A6C02F4002294
:102524000192019A02911A6B42F001021A631B6B29
:1025340003F001030293029B0323039302220492F8
:102544000122059206930823079303A90248FEF784
:1025540029F9D7E7004C0040000002407047FEE72D
:10256400FEE7FEE7FEE770477047704708B5FEF7E1
:1025740005F808BD0F49D1F8883043F47003C1F859
:1025840088300D4B1A6842F001021A6000209860EE
:102594001A6822F0847222F480321A60074A5A6060
:1025A4001A6822F480221A60D8604FF000638B60AE
:1025B400704700BF00ED00E00038024010300024F6
:1025C400DFF834D0002103E00C4B5B584350043156
:1025D4000B480C4B42189A42F6D30B4A02E00023F4
:1025E40042F8043B094B9A42F9D3FFF7C3FF00F0CA
:1025F40011F8FFF717FD704700000220B02600080D
:10260400000000200C0000200C0000201403002017
:10261400FEE7000070B50D4E0D4CA41BA410002560
:10262400A54209D10B4E0C4C00F020F8A41BA410B9
:102634000025A54205D170BD56F8253098470135CF
:10264400EEE756F8253098470135F2E7A82600084A
:10265400A8260008A8260008AC2600080244034661
:10266400934200D1704703F8011BF9E7F8B500BFA6
:10267400F8BC08BC9E467047F8B500BFF8BC08BC5F
:042684009E467047B7
:10268800000000000000000001020304060708091A
:08269800000000000102030430
:0826A00094DBFF7F0100000044
:0426A800E90100083C
:0426AC00C50100085C
:0C26B00001000000100000000024F400F5
:04000005080025C505
:00000001FF
